S00E00004461794F6E652E73726563D6
S11300003019FE1F4D1C0000B5180000491C0000EB
S1130010491C0000491C0000491C000000000000AD
S1130020000000000000000000000000491C000067
S1130030491C000000000000491C0000491C00008D
S113004000000000000000000000000000000000AC
S1130050000000000000000000000000000000009C
S1130060000000000000000000000000000000008C
S1130070000000000000000000000000000000007C
S1130400FFFFFFFFFFF9FFFFFCFFFFFFFFFFFFFF01
S1130410FCFFFFFFFFFFFFFFFCFFFF00FFFFFF00EC
S1130420FCFFFFFFFFFFFFFFFCFF7F40FFFF7F405C
S1130430FCFF7F40FFFF7F40FFFFFFFFFFFFFFFF49
S1130440FFFFFFFFFFFFFFFFFFFFFFFFFFFFFFFFB8
S1130450FFFFFFFFFFFFFFFFFFFFFFFFFFFFFFFFA8
S1130460FFFFFFFFFFFFFFFFFFFFFFFFFFFFFFFF98
S1130470FFFFFFFFFFFFFFFFFFFFFFFFFFFFFFFF88
S1130480FFFFFFFFFFFFFFFFFFFFFFFFFFFFFFFF78
S1130490FFFFFFFFFFFFFFFFFFFFFFFFFFFFFFFF68
S11304A0FFFFFFFFFFFFFFFFFFFFFFFFFFFFFFFF58
S11304B0FFFFFFFFFFFFFFFFFFFFFFFFFFFFFFFF48
S11304C0FFFFFFFFFFFFFFFFFFFFFFFFFFFFFFFF38
S11304D0FFFFFFFFFFFFFFFFFFFFFFFFFFFFFFFF28
S11304E0FFFFFFFFFFFFFFFFFFFFFFFFFFFFFFFF18
S11304F0FFFFFFFFFFFFFFFFFFFFFFFFFFFFFFFF08
S113050010B5054C237833B9044B13B10448AFF349
S113051000800123237010BD5004FE1F0000000062
S11305203C2D000008B5064B1BB106480649AFF345
S113053000800648036813B1054B03B1984708BD12
S1130540000000003C2D00005404FE1F3404FE1F74
S113055000000000012907D029B9074B1A7810437D
S113056000F0300018707047034B1A7802F0300224
S113057022EA000018707047000D0440000A400190
S1130580024B41EA0242C250704700BF08000440D7
S1130590000A430103F1804303F104131868000CBB
S11305A0704700BF034B000A03EB401341EA0242C9
S11305B05A60704708000440030AC0B200EB0313FA
S11305C09B0003F1804303F581231868C0F34000C6
S11305D0704700BF000A430103F1804303F1041391
S11305E0186880B2704700BF000A430103F18043DA
S11305F003F58023186880B2704700BF000A4301E6
S113060003F1804303F580231A68120C120411438A
S113061019607047030AC0B200EB03139B000E4A33
S113062003F1804310B4402003F581230024D470E7
S1130630D070C8031A6805D522F4803021F48032C2
S113064018601A60044A196000218023D170D370A5
S11306505DF8044B704700BF000D0440020AC3B2AA
S113066003EB02139B0003F1804303F5812301296B
S11306701B6804490CBF43F0010323F00103194034
S1130680FFF7C8BFD5FC011F020AC3B203EB021374
S11306909B0003F1804303F581231B6829B10649BC
S11306A043F004031940FFF7B5BF034923F00403E3
S11306B01940FFF7AFBF00BFD5FC011F034601225D
S11306C000201A709A705870D870704738B5054673
S11306D088B10388002463B16B6803EBC40253F848
S11306E034109088FFF796FF01342B88A4B2A342FC
S11306F0F2D8002038BD012038BD00BF08B540F64F
S11307000733984201D9032008BDFFF783FF002077
S113071008BD00BF40F60733984210B50C4602D915
S11307200323184610BD29B1FFF746FF00232070AC
S1130730184610BD0123F4E7B0F5306F10B50C4630
S113074002D90323184610BD29B1FFF743FF002344
S11307502080184610BD0123F4E700BF10B50C46F5
S11307600AB9032010BDB0F5306FFAD8114022EA5F
S11307700402FFF703FF002010BD00BF012908B5E4
S113078001D9032008BD40F607329042F9D8FFF79B
S113079065FF002008BD00BF10B5044682B012B941
S11307A0032002B010BDB0F5306FF9D8019100926A
S11307B0FFF71AFF0199009A02EA0103184383B272
S11307C061EA020120461940FFF718FF0020E8E71C
S11307D0012908B501D9032008BD40F6073290422B
S11307E0F9D8FFF751FF002008BD00BFB0F5306F06
S11307F010B50C4602D90323184610BD29B1FFF7E2
S1130800C7FE00232080184610BD0123F4E700BF73
S113081038B540F60733984204460D4601D9032003
S113082038BD81B100F47F40FFF7B2FEE4B201238A
S113083003FA04F4A4B2204084420BBF0020002039
S11308402B70287038BD012038BD00BFB0F5306F63
S113085008B50B4601D9032008BD002AFBD011407E
S113086022EA0302FFF79EFE002008BD08B540F609
S11308700733984201D9032008BD0129FBD800F4AD
S11308807F43C0B208D00122824092B200211846B0
S1130890FFF788FE002008BD814089B20022F6E7F8
S11308A0202808B501D9032008BD0129FBD8FFF78A
S11308B051FE002008BD00BF70B4E8B1104B5A6867
S11308C06FF38E325A60466866B18168B6000023C1
S11308D0CD5C0C4ACC18AD002A44043364881480DF
S11308E0B342F5D1007828B1074B1A7842F0800260
S11308F01A70002070BC7047012070BC704700BFA4
S1130900007004401010044000100440024B23F80F
S113091020100020704700BF10100440024A00233A
S113092042F820301846704710100440034B1A78E0
S113093042F080021A700020704700BF001004408B
S1130940034B1A786FF3C7121A700020704700BF68
S11309500010044020B1034B1B6803600020704763
S1130960012070472C27000058B1012807D1084BFB
S1130970002040214122187119711A717047012019
S11309807047034B40214122987099709A707047C8
S113099000100440084B094A094810B40021094CCE
S11309A01A604FF400425C60D86059619A601A6121
S11309B05DF8044B704700BF3804FE1F0024F400A8
S11309C000366E0100127A00184B194A198D01F095
S11309D0030132F811203AB3188D16491B8D10F01B
S11309E0100F0CBF0320002007EE902A51F82000BE
S11309F007EE100AF8EE676AB8EE477AC3F30523E8
S1130A0087EE267A06EE903AF8EEE67AF7EE006A7A
S1130A1077EEA67AF6EE006A67EEA67A67EE277A94
S1130A20FCEEE77AC1ED057A704700BF00E00140B3
S1130A30302700003804FE1F0E4BB3F8FE2392B299
S1130A4042F4254242F00102A3F8FE2393F8132452
S1130A50000100F0300002F0CF02024383F81324B7
S1130A60B3F8FE2345F6FE210A4042F42542A3F8DA
S1130A70FE23704700E001400E4BB3F8FE2392B210
S1130A8042F4254242F00102A3F8FE2393F88124A4
S1130A90400000F0020002F0FD02024383F88124CA
S1130AA0B3F8FE2345F6FE210A4042F42542A3F89A
S1130AB0FE23704700E00140264AB2F8FE339BB2A1
S1130AC043F4254343F00103A2F8FE3305280BD871
S1130AD0DFE800F00320283038181E4B93F8362046
S1130AE06FF3000283F836201A4AB2F8FE3323F477
S1130AF0145323F001035B045B0C43F42543A2F875
S1130B00FE337047134B93F82A206FF3000283F8E7
S1130B102A20E9E70F4B93F838206FF3000283F89B
S1130B203820E1E70B4B93F890246FF3000283F82D
S1130B309024D9E7074B93F832206FF3000283F82F
S1130B403220D1E7034B93F880246FF3000283F83B
S1130B508024C9E700E00140264AB2F8FE339BB284
S1130B6043F4254343F00103A2F8FE3305280BD8D0
S1130B70DFE800F00320283038181E4B93F83620A5
S1130B8042F0010283F836201A4AB2F8FE3323F405
S1130B90145323F001035B045B0C43F42543A2F8D4
S1130BA0FE337047134B93F82A2042F0010283F876
S1130BB02A20E9E70F4B93F8382042F0010283F82A
S1130BC03820E1E70B4B93F8902442F0010283F8BC
S1130BD09024D9E7074B93F8322042F0010283F8BE
S1130BE03220D1E7034B93F8802442F0010283F8CA
S1130BF08024C9E700E00140032810D0052808D06C
S1130C0008B100207047094B93F83C0000F0010044
S1130C107047064B93F83C00C0F340107047034BF9
S1130C2093F83C00C0F3C000704700BF00E00140EF
S1130C30052834D8DFE800F00B131B232B03194BD2
S1130C4093F82A0000F0010080F001007047154B72
S1130C5093F8360000F0010080F001007047114B5A
S1130C6093F8380000F0010080F0010070470D4B4C
S1130C7093F8900400F0010080F001007047094BE4
S1130C8093F8320000F0010080F001007047054B3A
S1130C9093F8800400F0010080F001007047002008
S1130CA0704700BF00E00140024B1A6A93F82630F7
S1130CB0704700BF00E001400C4BB3F8FE2392B232
S1130CC042F4254242F00102A3F8FE2393F81324D0
S1130CD060F3861283F81324B3F8FE2345F6FE214D
S1130CE00A4042F42542A3F8FE23704700E0014085
S1130CF00C4BB3F8FE2392B242F4254242F00102B7
S1130D00A3F8FE2393F8A22061F3030283F8A22040
S1130D10B3F8FE2345F6FE210A4042F42542A3F827
S1130D20FE23704700E0014005288CBF002001200D
S1130D30704700BF06288CBF00200120704700BF09
S1130D40024B93F8260000F00700704700E00140D2
S1130D500C4BB3F8FE2392B242F4254242F0010256
S1130D60A3F8FE2393F8262060F3020283F82620DA
S1130D70B3F8FE2345F6FE210A4042F42542A3F8C7
S1130D80FE23704700E00140034B1B8D13F0100F4E
S1130D900CBF03200020704700E001400D4B0E49BA
S1130DA0B3F8FE2311F8101092B242F4254242F037
S1130DB00102A3F8FE231A8D61F304121A85B3F815
S1130DC0FE2345F6FE210A4042F42542A3F8FE2301
S1130DD0704700BF00E00140402700000F4BB3F80C
S1130DE0FE2330EE000A92B242F42542BCEEC00A61
S1130DF042F00102A3F8FE2310EE101A1A8D0139F5
S1130E0061F30D221A85B3F8FE2345F6FE210A404C
S1130E1042F42542A3F8FE23704700BF00E00140DE
S1130E200D4B0E49B3F8FE2331F8101092B242F480
S1130E30254242F00102A3F8FE231A8D61F3010258
S1130E401A85B3F8FE2345F6FE210A4042F42542F2
S1130E50A3F8FE23704700BF00E0014038270000DC
S1130E602DE9F001174AB2F8FE339BB243F425434F
S1130E7043F00103A2F8FE3390F8008090F801C01B
S1130E808778C678057944798179002368F30E332D
S1130E906CF30A2367F3061366F3020365F3124344
S1130EA064F31E7361F31A631362B2F8FE3345F6FA
S1130EB0FE210B4043F42543A2F8FE33BDE8F001C4
S1130EC0704700BF00E001400E4B1A6AC2F30232C1
S1130ED002701A6AC2F3022242701A6AC2F3021240
S1130EE082701A6A02F00702C2701A6AC2F30242DE
S1130EF002711A6AC2F3027242711B6AC3F302637B
S1130F008371704700E00140062828D8DFE800F02C
S1130F10090E13181D220400124B186AC0F3026054
S1130F207047104B186AC0F3023070470D4B186AB3
S1130F30C0F3022070470B4B186AC0F302107047CD
S1130F40084B186A00F007007047064B186AC0F394
S1130F5002407047034B186AC0F3027070470020C8
S1130F60704700BF00E0014008B5FFF7CDFF054A18
S1130F70054B92F8262002F0070253F8223023FA98
S1130F8000F008BD00E001403804FE1F024B53F896
S1130F902000C840704700BF3804FE1F0F4BB3F851
S1130FA0FE2392B242F4254242F00102A3F8FE234A
S1130FB093F8402042F0800283F8402093F84020C8
S1130FC042F0010283F84020B3F8FE2345F6FE21E7
S1130FD00A4042F42542A3F8FE23704700E0014092
S1130FE00F4BB3F8FE2392B242F4254242F00102C1
S1130FF0A3F8FE2393F840206FF3000283F8402007
S113100093F840206FF3C71283F84020B3F8FE230F
S113101045F6FE210A4042F42542A3F8FE23704718
S113102000E00140024B93F84000C009704700BF44
S113103000E00140024B93F8410000F001007047CA
S113104000E00140114B93F8410010F0010001D180
S113105000207047B3F8FE2392B242F4254242F0D6
S11310600102A3F8FE2393F841206FF3000283F8F2
S11310704120B3F8FE2322F4145222F00102520458
S1131080520C42F42542A3F8FE23704700E00140CD
S11310900C4BB3F8FE2392B242F4254242F0010213
S11310A0A3F8FE2393F8302060F3000283F8302085
S11310B0B3F8FE2345F6FE210A4042F42542A3F884
S11310C0FE23704700E001400C4BB3F8FE2392B2BC
S11310D042F4254242F00102A3F8FE2393F8522081
S11310E042F0010283F85220B3F8FE2345F6FE21B4
S11310F00A4042F42542A3F8FE23704700E0014071
S11311000C4BB3F8FE2392B242F4254242F00102A2
S1131110A3F8FE2393F852206FF3000283F85220C1
S1131120B3F8FE2345F6FE210A4042F42542A3F813
S1131130FE23704700E00140124BB3F8FE2392B245
S113114042F4254242F00102A3F8FE2393F83E2024
S11311506FF3C71283F83E2093F83E2061F3061222
S113116083F83E2093F83E2060F3020283F83E2089
S1131170B3F8FE2345F6FE210A4042F42542A3F8C3
S1131180FE23704700E001400C4BB3F8FE2392B2FB
S113119042F4254242F00102A3F8FE2393F83E20D4
S11311A042F0800283F83E20B3F8FE2345F6FE2188
S11311B00A4042F42542A3F8FE23704700E00140B0
S11311C00C4BB3F8FE2392B242F4254242F00102E2
S11311D0A3F8FE2393F83E206FF3C71283F83E2052
S11311E0B3F8FE2345F6FE210A4042F42542A3F853
S11311F0FE23704700E001400C4BB3F8FE2392B28B
S113120042F4254242F00102A3F8FE2393F853204E
S113121042F0010283F85320B3F8FE2345F6FE2181
S11312200A4042F42542A3F8FE23704700E001403F
S11312300C4BB3F8FE2392B242F4254242F0010271
S1131240A3F8FE2393F853206FF3000283F853208E
S1131250B3F8FE2345F6FE210A4042F42542A3F8E2
S1131260FE23704700E001400C4BB3F8FE2392B21A
S113127042F4254242F00102A3F8FE2393F824200D
S113128060F3061283F82420B3F8FE2345F6FE210A
S11312900A4042F42542A3F8FE23704700E00140CF
S11312A00C4B01380022B0F1807F10B419681A6029
S11312B00BD2094C5860F02084F823000721012048
S11312C09A6019605DF8044B7047104619605DF828
S11312D0044B704710E000E000ED00E00A4B1A797F
S11312E002F00E0242F0F0021A711A7A00F00100C4
S11312F060F382021A721A7A60F3C3021A721A79BC
S113130042F0F1021A71704700200040074B1A792D
S113131042F0F1021A711A7A60F304121A721A79FD
S113132002F00E0242F0F0021A71704700200040F1
S1131330034B93F81C2160F3020283F81C217047CD
S113134000C00140024B93F81C0100F007007047F5
S113135000C0014000207047002070470020704703
S1131360024B1B6803600020704700BFA4270000E5
S113137038B50D460446FFF7E3FC20702846FFF716
S1131380A3FD002038BD00BF70B500240C600D46DD
S11313900646FFF7CFFC10B90324204670BD304643
S11313A0FFF7E2FD2860204670BD00BF10B5FFF7CF
S11313B041FE68B1FFF7C4FC0446FFF7E5FC052CC9
S11313C004D0032C04D140F2971010BD0328FAD0A6
S11313D0FFF738FE002010BD08B5FFF759FE0020C6
S11313E008BD00BF08B5FFF76FFE002008BD00BFB1
S11313F008B5FFF785FE002008BD00BF08B5FFF75C
S11314009BFE002008BD00BF08B5FFF7BDFE00200D
S113141008BD00BF08B5FFF7D3FE002008BD00BF1C
S113142008B5FFF7E9FE002008BD00BF08B5FFF7C7
S1131430FFFE002008BD00BF08B5FFF715FF002020
S113144008BD00BF10B582B00446019100F010FA47
S113145006EE100AF8EE467AB7EE007AC7EE277A5F
S1131460019907EE101A06EE104AF8EE476AB8EE34
S1131470467A67EEA67AC7EE277AFCEEE77A17EE8D
S1131480900AFFF70DFF00280CBF1220002002B0C5
S113149010BD00BF00B583B04FF6FF730193FFF793
S11314A079FA0420FFF758FB04E0019B3BB1019B50
S11314B0013B01930420FFF7BBFB0028F5D1019BFE
S11314C023B94FF4CD7003B05DF804FB052104206B
S11314D0FFF7EAFB0020FFF7CFFA0020FFF7ACFA92
S11314E00020FFF7E9FB03200921FFF701FC00209E
S11314F003B05DF804FB00BF10B50446FFF714FC0D
S113150008B9032010BD631E012B0FD9042C0DD084
S11315102CB1032C03D0052C01D0002010BD204693
S1131520FFF786FB68B94FF4C87010BD2046FFF77B
S11315307FFB40F2911300280CBF4FF4C87018468B
S113154010BD2046FFF758FB40F29313002814BF48
S11315504FF4C970184610BD70B582B00D460446EC
S1131560FFF7E2FB10B9032002B070BD052C204642
S113157016D0FFF75DFB18B140F2911002B070BDB8
S1131580631E012B4AD9042C30D00CB1032CEBD1AF
S11315902046FFF731FB002840D040F29310E3E7E8
S11315A0FFF746FBE8B92878FFF742FB10B94FF480
S11315B0CA70D9E72046FFF71FFB06460028ECD186
S11315C02878FFF7EBFB6878FFF72AFC95ED010A12
S11315D0FFF704FCFFF7F8F92046FFF76DFA3046F1
S11315E0C2E7FFF7F1F940F29110BDE72046FFF79B
S11315F063FA4FF6FF73019304E0019B3BB1019B37
S1131600013B01930420FFF713FB0028F5D0019B55
S1131610002B14BF00204FF4CD70A5E72046FFF740
S11316204BFA0020A0E700BF10B582B00446FFF7D4
S11316307BFB10B9032002B010BDFFF781FB84428D
S113164018D0052812D0012C17D02046FFF7F0FA45
S11316500028F0D0631E012B35D9042C1BD09CB17B
S1131660032C11D0052C0FD00020E4E7FFF78CFBEE
S1131670A042E8D140F29110DDE7FFF7D3FC002847
S1131680E3D040F29510D6E72046FFF7B5FAD0B97B
S113169040F29310CFE72046FFF75EFA4FF6FF7350
S11316A0019304E0019B3BB1019B013B01930420A6
S11316B0FFF7BEFA0028F5D1019B002B14BF0020D0
S11316C04FF4CD70B7E72046FFF746FA0020B2E7A3
S11316D070B50D460446FFF727FB08B9032070BD1B
S11316E02046A979FFF752FC274B984206462FD88B
S11316F00020FFF7F3FD0020FFF708FE234B9E4276
S11317002FD8FFF71FFE0026FFF71AFB844207D0ED
S1131710B4B1032C14D0052C12D02046FFF718FBCB
S113172000F0A6F81A4B18602846FFF799FBFFF75C
S113173009FE864222D03046FFF7FAFD002070BD34
S11317402046FFF759FA0028E7D14FF4C97070BD5D
S11317500120FFF7C3FD0F4B9E4211D90120FFF773
S1131760D5FD0D4B9E428CBF02260126FFF7EAFDF4
S1131770B042C9D23046FFF7DBFDC5E7002070BD9B
S11317800020FFF7C3FDECE7FF0D2707FFB3C404F8
S11317902C05FE1FFFC1EB0BFF67890900B583B061
S11317A039B9FFF747FC70B14FF4CB7003B05DF863
S11317B004FB0146012000F075F8FFF7EFFB002061
S11317C003B05DF804FB0190FFF70AFC019803B035
S11317D05DF804FB70B5234D82B02B689847002157
S11317E06E680320B04701221F49AC698DF80120BF
S11317F0032301918DF800300320A047B0F5C97F81
S1131800FAD169460520B047184B93F8002142F0FD
S1131810010283F800210520A047B0F5C97FFAD161
S113182000220124022369468DF806208DF8013038
S11318308DF802308DF805308DF80040EB688DF896
S113184003408DF80440052098472B6D04209847E9
S11318506B6A20469847AB6A9847AB6C984702B0CE
S113186070BD00BF482700000000A04100C0014037
S113187000B5054B83B05B6901A906209847019820
S113188003B05DF804FB00BF48270000044B0021AF
S113189003F1300243F8041F9342FBD1704700BFA9
S11318A06804FE1F024B43F820100020704700BF5D
S11318B06C04FE1F08B57A4BB3F84031D90700F128
S11318C0C180774BB3F840319A0700F1B080744B74
S11318D0B3F840315B0700F19F80714BB3F840319E
S11318E0180700F18E806E4BB3F84031D9067CD4D2
S11318F06B4BB3F84001C0F38010002869D1684BEA
S1131900B3F840311A0658D4654BB3F84031DB05BF
S113191047D4634BB3F84031980536D4604BB3F8E1
S11319204031590524D45E4BB3F840311A0512D422
S11319305B4BB3F84031DB0400D408BD594BDB6A80
S1131940002B40F0AA80564BB3F8302142F4805269
S1131950A3F8302108BD534B9B6A002B40F09A80BA
S11319604F4BB3F8302142F40062A3F83021DFE793
S11319704C4B5B6A002B40F08A80494BB3F8302112
S113198042F48062A3F83021CDE7464B1B6A002B5A
S11319907AD1434BB3F8302142F40072A3F83021DA
S11319A0BCE7404BDB69002B6BD13D4BB3F83021D6
S11319B042F48072A3F83021ABE73A4B1B68002B4A
S11319C05CD1374BB3F8302142F08002A3F83021C8
S11319D09AE7344B5B68002B4ED1314BB3F830217E
S11319E042F04002A3F8302189E72E4B9B69002B7B
S11319F03FD12B4BB3F8302142F01002A3F8302131
S1131A0076E7284B5B698BBB254BB3F8302142F05A
S1131A100802A3F8302166E7224B1B691BBB204B4D
S1131A20B3F8302142F00402A3F8302155E71D4BEE
S1131A309B68ABB91A4BB3F8302142F00202A3F809
S1131A40302144E7174BDB683BB9154BB3F8302121
S1131A5042F00102A3F8302133E703209847F4E76A
S1131A6002209847E6E704209847D8E705209847DE
S1131A70CAE706209847BCE79847AEE70020984796
S1131A809FE70720984790E70820984781E70920B7
S1131A90984772E70A20984762E70B20984752E775
S1131AA0006000406C04FE1F704700BF044B00211F
S1131AB003F1760203F8011F9342FBD1704700BF84
S1131AC09B04FE1F0E4B33F8102092B22AB133F858
S1131AD01020013A92B223F8102033F810309BB250
S1131AE063B9084B0849B3F8FE2331F8101092B2D9
S1131AF042F4254222EA0102A3F8FE23704700BF04
S1131B001405FE1F00E00140A82700000D4B33F828
S1131B10102092B210B45AB90B4A0C4CB2F8FE130E
S1131B2034F8104089B241F425412143A2F8FE1350
S1131B3033F810205DF8044B013292B223F81020E0
S1131B40704700BF1405FE1F00E00140A8270000F5
S1131B50024B00221A805A809A8070471405FE1F97
S1131B60F8B50688002E35D000244568F600A64650
S1131B7027464FF0010C2B19184A9888002332F895
S1131B80021F814217D00133032BF8D10834B44229
S1131B90F1D16FEA0E04E4B20120FFF7B7FF104B56
S1131BA093F8BB2417433C4083F8BB440120BDE8B1
S1131BB0F840FFF787BF295901F0B851B1F1807F90
S1131BC00CFA03F10BBF0F434EEA010EFFB25FFAAA
S1131BD08EFED8E73746FF24DEE700BFAE270000BD
S1131BE000E00140A0F101000028FBD1704700BFD4
S1131BF038B50D4601FB00F4FFF73AFEB0F5004F8F
S1131C0001D8012D19D00F4BB3FBF0F0844208D258
S1131C104FF47A7303FB04F4B4FBF0F0800808D1AA
S1131C2038BDB4FBF0F04FF47A7404FB00F0800884
S1131C30F6D0BDE83840FFF7D5BF2846BDE83840A8
S1131C40FFF7D0BF00CA9A3BFEE700BF08B500F01B
S1131C5005F800F051FAFEE7704700BF08B5204BC5
S1131C60D3F8882042F47002C3F888200020FFF7DC
S1131C70F3FFFFF70BFEFFF7ADFDFFF769FF194810
S1131C80FFF76EFF184B17481B6898471749184B06
S1131C90C91A05D01944002203F8012B8B42FBD149
S1131CA01448154BC01A07D0144A184412F8011FDF
S1131CB003F8011B8342F9D1FFF7DAFD104B1860DA
S1131CC00120FFF7C9FFFFF7F1FEFFF7EDFE0D4B13
S1131CD00D481B6898470020BDE8084000F016B87E
S1131CE000ED00E0B8270000D82600003005FE1FF4
S1131CF05004FE1F3804FE1F0000FE1F3F2D00008D
S1131D002C05FE1F10270000202D000008B500F050
S1131D1053F9BDE8084000F067B800BF10B44FF0B5
S1131D20C84185B08A69D2074FF0C843FAD4197DF7
S1131D302C4A41F00101197511786FF3C301117038
S1131D40062112681961187D812140F0010018757F
S1131D5019611A61197D40F6FF7241F0010119758C
S1131D60052401921C611A69197D41F0010119755C
S1131D70019901390191019902F001024FF0C84023
S1131D8059B1002AEED104230361037D43F001031A
S1131D900375037D62F3000303754FF0C84200230B
S1131DA002930299117D63F300011175118D63F3A0
S1131DB00F211185118D4FF0C04341F08001118531
S1131DC01B68029340F6FF73039304E0039B013BFB
S1131DD00393039B13B1936A5B06F7D505B05DF8D3
S1131DE0044B70472405FE1F38B54FF0C84300214B
S1131DF06C4810221A63996119625963C3F8041874
S1131E000468694A61F386140460187A61F3040073
S1131E101872187D662140F0010018751961187D4B
S1131E20992140F0010018751961187D9F2140F037
S1131E3001001875196119691170196951701869CF
S1131E40197D907041F0010119751178202904D091
S1131E50002313705370937038BD5178BA29F7D1A9
S1131E6091781929F4D1B5221A61186919691D7D6F
S1131E704E4AC9B2C0B241EA00204FF2010101400A
S1131E8045F2010445F00105A1421D75106026D0FC
S1131E9014785178052044F0010460F3071114709C
S1131EA051700621126819611D7D110A45F0010562
S1131EB0B1241D751C6119611A611A7D42F0010279
S1131EC01A7518611A69197DD40741F00101197551
S1131ED04FF0C841F5D40B7D43F001030B754FF06F
S1131EE0C84385221A611C691D7D314AE4B221462A
S1131EF0052045F0010560F307111D7514600625E2
S1131F00117012681D611C7D812144F001041C754F
S1131F1019611A611A7D42F001021A7518611A6971
S1131F20197DD20741F0010119754FF0C841F5D46C
S1131F3004230B61087D1F4A40F0010070230875DB
S1131F400B610B69087DDBB240F00100087513607A
S1131F50DB070BD591F8243043F0030381F82430D8
S1131F6091F8243043F0100381F824304FF0C84432
S1131F700322238D62F3030323852379042262F36E
S1131F80030323712388052262F302032380238839
S1131F9043F040032380FFF7C1FE237D6FF300036A
S1131FA0237538BD007004401C05FE1F2805FE1F64
S1131FB02405FE1F2005FE1F08B501216420FFF73C
S1131FC017FE4C49B1F8243C6FF30A23A1F8243CD2
S1131FD091F8503C474A002BFAD1B2F8243C022134
S1131FE061F30713A2F8243C114691F8503C414A8E
S1131FF0002BFAD1B2F8243C052161F30303A2F8C3
S1132000243C114691F8503C3A4A002BFAD192F8FC
S1132010203C43F0010382F8203C114691F8503CE7
S1132020344AC3F3C003002BF8D192F8001C63F3C5
S1132030051182F8001C92F8021C41F0010182F89B
S1132040021C92F8011C63F3000182F8011C92F84F
S1132050503C2849002BFAD14FF40C73A1F8483CAA
S113206091F8502C234BD207FAD4D3F8442C0521F1
S113207061F31242C3F8442CD3F8442C022161F3D7
S11320800D32C3F8442CD3F8442C61F34B22C3F82B
S1132090442CD3F8442C42F48072C3F8442CD3F873
S11320A0442C032161F30202C3F8442C93F8402C1E
S11320B0012161F3010283F8402CB3F8142C0721A9
S11320C061F30F32A3F8142CB3F8142C4FF46A7193
S11320D061F30B02A3F8142C93F8162C42F00102BE
S11320E083F8162C93F8002C42F0010283F8002C9C
S11320F008BD00BF0030004008B500F005F800201E
S113210008BD00BFFFFFFFFF0D4B70B55E680125E2
S11321102946F36940F60700984785F00105002435
S11321200134204600F062F903A3D3E9002300F050
S113213023FA0028F4D1EBE70000000080842E414C
S11321402C2D0000AFF3008081F0004102E000BFBD
S113215083F0004330B54FEA41044FEA430594EA63
S1132160050F08BF90EA020F1FBF54EA000C55EA9E
S1132170020C7FEA645C7FEA655C00F0E2804FEA6F
S11321805454D4EB5555B8BF6D420CDD2C4480EA51
S1132190020281EA030382EA000083EA010180EA81
S11321A0020281EA0303362D88BF30BD11F0004FCF
S11321B04FEA01314FF4801C4CEA113102D0404205
S11321C061EB410113F0004F4FEA03334CEA133340
S11321D002D0524263EB430394EA050F00F0A78058
S11321E0A4F10104D5F1200E0DDB02FA0EFC22FA53
S11321F005F2801841F1000103FA0EF2801843FA47
S113220005F359410EE0A5F120050EF1200E012A37
S113221003FA0EFC28BF4CF0020C43FA05F3C01875
S113222051EBE37101F0004507D54FF0000EDCF1EE
S1132230000C7EEB00006EEB0101B1F5801F1BD397
S1132240B1F5001F0CD349085FEA30004FEA3C0C9B
S113225004F101044FEA445212F5800F80F09A8091
S1132260BCF1004F08BF5FEA500C50F1000041EB95
S1132270045141EA050130BD5FEA4C0C404141EB99
S1132280010111F4801FA4F10104E9D191F0000FC0
S113229004BF01460020B1FA81F308BF2033A3F143
S11322A00B03B3F120020CDA0C3208DD02F1140C3A
S11322B0C2F10C0201FA0CF021FA02F10CE002F175
S11322C01402D8BFC2F1200C01FA02F120FA0CFC6E
S11322D0DCBF41EA0C019040E41AA2BF01EB0451B7
S11322E0294330BD6FEA04041F3C1CDA0C340EDCB5
S11322F004F11404C4F1200220FA04F001FA02F3F8
S113230040EA030021FA04F345EA030130BDC4F1B5
S11323100C04C4F1200220FA02F001FA04F340EAAA
S11323200300294630BD21FA04F0294630BD94F05B
S1132330000F83F4801306BF81F480110134013D42
S11323404EE77FEA645C18BF7FEA655C29D094EAB3
S1132350050F08BF90EA020F05D054EA000C04BF31
S11323601946104630BD91EA030F1EBF002100201C
S113237030BD5FEA545C05D14000494128BF41F0BB
S1132380004130BD14F580043CBF01F5801130BD1F
S113239001F0004545F0FE4141F470014FF00000AA
S11323A030BD7FEA645C1ABF194610467FEA655C5B
S11323B01CBF0B46024650EA013406BF52EA0335FD
S11323C091EA030F41F4002130BD00BF90F0000FEB
S11323D004BF0021704730B54FF4806404F1320427
S11323E04FF000054FF0000150E700BF90F0000FE0
S11323F004BF0021704730B54FF4806404F1320407
S113240010F0004548BF40424FF000013EE700BFD6
S113241042004FEAE2014FEA31014FEA02701FBF66
S113242012F07F4393F07F4F81F06051704792F038
S1132430000F14BF93F07F4F704730B54FF46074B2
S113244001F0004521F0004120E700BF50EA0102FD
S113245008BF704730B54FF000050AE050EA0102AA
S113246008BF704730B511F0004502D5404261EB1A
S113247041014FF4806404F132045FEA915C3FF45B
S1132480DCAE4FF003025FEADC0C18BF03325FEAF4
S1132490DC0C18BF033202EBDC02C2F1200300FAA9
S11324A003FC20FA02F001FA03FE40EA0E0021FACE
S11324B002F11444C1E600BF4FF0FF3C06E000BF48
S11324C04FF0010C02E000BF4FF0010C4DF804CDB9
S11324D04FEA410C7FEA6C5C4FEA430C18BF7FEA79
S11324E06C5C1BD001B050EA410C0CBF52EA430CA7
S11324F091EA030F02BF90EA020F0020704710F127
S1132500000F91EA030F58BF994208BF90422CBFB5
S1132510D8176FEAE37040F0010070474FEA410CAE
S11325207FEA6C5C02D150EA013C07D14FEA430CCC
S11325307FEA6C5CD6D152EA033CD3D05DF8040B3D
S1132540704700BF8446104662468C46194663466F
S113255000E000BF01B5FFF7B7FF002848BF10F146
S1132560000F01BD4DF808EDFFF7F4FF0CBF01208B
S113257000205DF808FB00BF4DF808EDFFF7EAFF07
S113258034BF012000205DF808FB00BF4DF808EDC2
S1132590FFF7E0FF94BF012000205DF808FB00BFB7
S11325A04DF808EDFFF7CEFF94BF012000205DF841
S11325B008FB00BF4DF808EDFFF7C4FF34BF01204E
S11325C000205DF808FB00BF024B13B1024800F085
S11325D005B8704700000000E9250000014600200E
S11325E00246034600F018B838B5094D094C641B7F
S11325F0A41018BF05EB840505D0013C55F8043D33
S11326009847002CF9D1BDE8384000F05FB800BF0E
S11326103004FE1F3404FE1FF0B5274C2668D6F89C
S1132620484185B00746002C41D065681F2D1EDD4A
S1132630224818B94FF0FF3005B0F0BD4FF4C87010
S1132640039102920193AFF300800399029A019BD4
S113265004460028EED0D6F848512560002060607A
S11326600546C6F84841C4F88801C4F88C013FB94E
S1132670AB1C00200135656044F8231005B0F0BDA3
S113268004EB85004FF0010CC0F88820D4F8886171
S11326900CFA05F21643022FC4F88861C0F8083119
S11326A0E6D1D4F88C311A43C4F88C21E0E706F55E
S11326B0A674C6F84841B8E7382D000000000000B1
S11326C0F8B500BFF8BC08BC9E467047F8B500BF1B
S11326D0F8BC08BC9E467047CD060000FD0600000D
S11326E0D1070000110800006D080000A1080000D7
S11326F0150700007D07000099070000ED070000A2
S11327004D080000390700005D070000BD06000009
S1132710B9080000690900000D0900001D09000046
S11327202D090000410900005509000001000100C5
S1132730010002000300000000000100020000008C
S1132740010001000100000095140000591500006B
S113275029160000D116000071130000891300002F
S1132760F91400009D170000AD130000D9130000F8
S1132770E5130000F1130000FD130000091400002C
S11327801514000055130000591300005D130000D8
S1132790211400002D140000391400004514000019
S11327A061130000010001000100020008000000A4
S11327B00204030404040000AC000000C02700006D
S11327C00000000000000000000000000100000004
S11327D000400000020000000000000003000000B0
S11327E000000000040000000000000005000000DC
S11327F000000000060000000000000007000000C8
S113280000000000080000000000000009000000B3
S1132810000000000A000000000000000B0000009F
S1132820000000000E000000000000000F00000087
S1132830000C010B00010000000C010B0101000061
S1132840000C010B02010000000C010B030100004D
S1132850000C010B04010000000C010B0501000039
S1132860000C010B06010000000C010B0701000025
S1132870000001000801000000000100090100003F
S1132880000001000A010000000C010B0B01000014
S1132890000C010B0C010000000C010B0D010000E9
S11328A0000C010B0E010000000C010B0F010000D5
S11328B0000000000002000000000000010200000F
S11328C0000C011502020000000C011503020000B7
S11328D0000C011504020000000C011505020000A3
S11328E0000C0115060200000000000007020000B1
S11328F0000000000C020000000000000D020000B7
S11329000000010000030000000C010B01030000A3
S1132910000C010B02030000000C010B0303000078
S1132920000C010B04030000000C010B0503000064
S1132930000C010B06030000000C010B0703000050
S1132940000C010B08030000000C010B090300003C
S1132950000C010B0A030000000C010B0B03000028
S1132960000C010B0C030000000C01150D0300000A
S1132970000000000E030000000000000F03000030
S1132980000000000004000000000000010400003A
S1132990000000000204000000000117030400000E
S11329A000000117040400000000011705040000E2
S11329B000000117060400000000011307040000D2
S11329C000000000080400000000000009040000EA
S11329D0000C01150A040000000C01150B04000092
S11329E0000C01150C040000000C01150D0400007E
S11329F0000C01150E040000000000000F0400008C
S1132A000000011100050000000001110105000093
S1132A10000001110205000000000111030500007F
S1132A20000001110405000000000111050500006B
S1132A30000000000605000000000000070500007B
S1132A400000000008050000000000000905000067
S1132A50000000000A050000000000000B05000053
S1132A60000000000C050000000000000D0500003F
S1132A70040000000E050000040000000F05000023
S1132A800000000000060000000C010B010600001D
S1132A90000C010B02060000000C010B03060000F1
S1132AA0000C010B04060000000C010B05060000DD
S1132AB000000000060600000000000007060000F9
S1132AC0000C010B08060000000C010B09060000B5
S1132AD0000C010B0A060000000C010B0B060000A1
S1132AE0000C010B0C060000000C010B0D0600008D
S1132AF0000C010B0E060000000000000F06000091
S1132B000000011700070000000001170107000082
S1132B10000001170207000000000117030700006E
S1132B20000001170407000000000117050700005A
S1132B30040000000607000000000114070700005D
S1132B400000000008070000000000000907000062
S1132B50000000000A070000000000000B0700004E
S1132B60000000000C070000000001170D07000022
S1132B70000C010B00080000000C010B0108000010
S1132B80000000000208000000000000030800002C
S1132B900000000004080000000000000508000018
S1132BA00000000006080000040000000708000000
S1132BB004000000080800000400000009080000E8
S1132BC0040000000A080000000000000B080000D8
S1132BD0000000000C080000000000000D080000C8
S1132BE000000000000900000000000001090000CE
S1132BF00000000002090000000C01150309000098
S1132C0000000000040900000000000005090000A5
S1132C100000000006090000000000000709000091
S1132C20000000000809000000000000090900007D
S1132C30000000000A090000000000000B09000069
S1132C40000000000C090000000000000D09000055
S1132C50000000000E090000000000000F09000041
S1132C6000000000000A000000000000010A00004B
S1132C7000000000020A000000000000030A000037
S1132C8000000000040A000000000000050A000023
S1132C9000000000060A000000000000070A00000F
S1132CA000000000080A000000000000090A0000FB
S1132CB0000000000A0A0000000000000B0A0000E7
S1132CC0000000000C0A0000000000000D0A0000D3
S1132CD0000000000E0A0000000000000F0A0000BF
S1132CE000000114000B000000000114010B00009F
S1132CF000000104020B000000000104030B0000AB
S1132D0010000104040B000010000104050B000076
S1132D1000000117060B000000000117070B00005C
S1132D20010000000000000000000000000000009E
S1132D30D8260000430000000000FE1F0000000031
S1132D4000000000EC02FE1F5403FE1FBC03FE1F24
S1132D50000000000000000000000000000000006F
S1132D60000000000000000000000000000000005F
S1132D7000000000342D00000000000000000000EE
S1132D80000000000000000000000000000000003F
S1132D90000000000000000000000000000000002F
S1132DA0000000000000000000000000000000001F
S1132DB0000000000000000000000000000000000F
S1132DC000000000000000000000000000000000FF
S1132DD000000000000000000000000000000000EF
S1132DE000000000000000000100000000000000DE
S1132DF00E33CDAB34126DE6ECDE05000B000000A3
S1132E0000000000000000000000000000000000BE
S1132E1000000000000000000000000000000000AE
S1132E20000000000000000000000000000000009E
S1132E30000000000000000000000000000000008E
S11331600000000000000000C92500002505000043
S10B317001050000000000004D
S9031C4D93
